:0A0000000C94FB040C9400000C9417
:10000A0000000C9400000C9400000C9400000C9466
:10001A0000000C9400000C9400000C9400000C9456
:10002A0000000C9400000C9400000C9400000C9446
:10003A0000000C9400000C9400000C9400000C9436
:10004A0000000C9400000C94000000000000000066
:10005A000000000000000000000000000000000096
:10006A000000000000000000000000000000000086
:10007A000000000000000000000000000000000076
:10008A000000000000000000000000000000000066
:10009A000000000000000000000000000000000056
:1000AA000000000000000000000000000000000046
:1000BA000000000000000000000000000000000036
:1000CA00000000000000000000002020282868B07E
:1000DA0060202020282A28302020008080443224D2
:1000EA002020002424243820202020202020242AF4
:1000FA001100202020242A11202030202020242A08
:10010A001120202030203028281820242221242AB7
:10011A001100242221242A11202030242221242AD9
:10012A001120008080403020202020202060A06004
:10013A00283020202060B060202000302860A06095
:10014A0030200004061D25242020000000000000A5
:10015A00000000004F000000000000070007000038
:10016A00000000147F147F14000000242A7F2A1242
:10017A00000000231308646200000036495522403B
:10018A0000000000050300000000001C22410000DE
:10019A0000000041221C000000000014083E081460
:1001AA0000000008083E08080000000028180000A7
:1001BA0000000008080808080800003030000000A5
:1001CA0000000020100804020000003E5149453E8C
:1001DA0000000000427F4000000000426151494691
:1001EA000000002141454B310000001814127F1015
:1001FA0000000000274545453900003C4A4949307E
:10020A00000000017109050300000036494949361A
:10021A00000000064949291E000000003636000089
:10022A0000000000563600000000000814224100B9
:10023A000000002424242424000000004122140881
:10024A000000000201510906000000324979413ECE
:10025A000000007E1111117E0000007F49494936D5
:10026A000000003E414141220000007F4141221C22
:10027A000000007F494949410000007F090909013E
:10028A000000003E4149493A0000007F0808087F03
:10029A0000000000417F41000000002040413F0172
:1002AA000000007F081422410000007F40404040C7
:1002BA000000007F020C027F0000007F0408107F0C
:1002CA000000003E4141413E0000007F0909090645
:1002DA0000003E4151215E000000007F09192946B5
:1002EA00000000464949493100000001017F01012F
:1002FA000000003F4040403F0000001F2040201FF8
:10030A000000003F4060403F00000063140814638F
:10031A0000000007087008070000006151494543C2
:10032A000000007F4141000000000015167C1615F0
:10033A0000000041417F00000000000402010204A5
:10034A00000000404040404000000001020400005C
:10035A0000000020545454780000007F444444387C
:10036A000000003844444400000000384444487FF8
:10037A000000003854545418000000107E11010285
:10038A000000000C5252523E0000007F080404781C
:10039A0000000000447D40000000002040403D0075
:1003AA000000007F1028440000000000417F400048
:1003BA000000007C041804780000007C080404781B
:1003CA0000000038444444380000007C1414140827
:1003DA00000000081414187C0000007C08040408BB
:1003EA000000004854545420000000043F444020B8
:1003FA000000003C4040207C0000001C2040201CE3
:10040A000000001E2010201E0000002214081422E2
:10041A00000000064848483E0000004464544C442A
:10042A00000000083641000000000000007F0000C4
:10043A00000000413608000000000008082A1C08D5
:10044A00000000081C2A08080000003C4241423C07
:10045A00000000302860A060283020202020A02042
:10046A00283020202020B020202000302820A02062
:10047A003020202020222022283020202022302232
:10048A002020003028222022302020202022212251
:10049A002830202020223122202000302822212228
:1004AA0030202020282828B0202020202828283062
:1004BA00202000C0A82868B0602000008080443254
:1004CA000400002425243820202030242221242A34
:1004DA00110000808040342020202020203820383D
:1004EA002018202038203820382060808078203852
:1004FA002018202020382239221820203822392298
:10050A003820608080782239221830202020242A3E
:10051A001100203020302828382060808060302860
:10052A0028382020302030282A1820302030282A45
:10053A0038206080806030282A3820203E302828E1
:10054A00382020203E30282A382020202020302819
:10055A00280020202030282820200040A0B0282869
:10056A0020202020202030282A0020202030282A5D
:10057A0020200040A0B0282A202020202020302837
:10058A002A30202030282A30202000182020302825
:10059A002A3020202020302A28322020302A2832CF
:1005AA002020608080B2A87A2020222525252525B2
:1005BA0025192020201C2221202030282C2A203FE7
:1005CA0020202020202020201F00202020201F2043
:1005DA002020003040403F2020202020202030488A
:1005EA004830202030484830202080403048483069
:1005FA0020202020202022201800202020201A201D
:10060A002020304044403020202020202030283A2A
:10061A002C18202030283A2C3820001814141820BE
:10062A0020200021222428100F0000B0A8782020C2
:10063A002020202020A020A02830202020A030A088
:10064A00202000608080A0501020001E2020202042
:10065A0020200020302828200000000402023A024C
:10066A000201000004063D050400000004B6AD7D49
:10067A000400000080C0BFA0800004668595A8A879
:10068A0048000000003F0000000000302820A020A1
:10069A0028300000302A2832000000302822202288
:1006AA002830003028222122283000C0A8A828B0EB
:1006BA00202000C0A8A8A830202000C0A8AA28305E
:1006CA002020000024242438000000002425243897
:1006DA00000000808040300000000000808040342C
:1006EA000000608080782038201860808078223965
:1006FA002218608080603028281860808060302846
:10070A002A18002214081422000020203E3028282B
:10071A00180020203E30282A1800000040A0B028E7
:10072A002800000040A0B02A2800202020202020F5
:10073A0020200018202030282A3000608080B2A8AB
:10074A007A000030282C2A203F000040A9AAA8F0ED
:10075A00000000006080807E00000040AAA9AAF084
:10076A0000000000C0203028283000006080888007
:10077A0060000000302828300000000000B0A8788F
:10078A0000000426252528100F00042222262910FD
:10079A000F0000212224A8D0AFA00070AAA9AA3075
:1007AA0000000070AAA8AA3000000030404050287B
:1007BA0008000030C040D02808000000027902007A
:1007CA00000000000278020000000000000000059E
:1007DA00050500000004030B0606A0A0A000000007
:1007EA00000000000101010100000021222428105C
:1007FA002F20000000000004030300008080808096
:10080A00000000001010541010000000020402043E
:10081A0002002024262525202830202426253520BC
:10082A002020086C8A8AA050102004B6AD7D2420AE
:10083A00202000191415182020200402021A22224E
:10084A0021200040605048504040C1C1C1C1000051
:10085A00C2C2FEFE0100C3C31F1F0100C4C4FCFCC8
:10086A000100C5C5C5C50101C6BDBFBE0101C7C7D7
:10087A00C0C00100C88284830101C9C9FDFD01000D
:10088A00CA8587860101CB888A890101CC8BCC8BEA
:10089A000101CD8CCD8C0101CE11CE110101CFCF3A
:1008AA0013130100D0D08F8F0100D1D11B1B01007F
:1008BA00D2D291910100D39294930101D495979643
:1008CA000101D5179A990101D69B9D9C0101D7D7A1
:1008DA00D7D70000D8D89E9E0101D9D99F9F010180
:1008EA00DAA0A2A10101DBA3A5A40101DCDCDCDC06
:1008FA000000DDA6A8A70101DEA9ABAA0101DFACB1
:10090A00AEAD0101E0E0E0E00000E1AFB1B001010D
:10091A00E2E2E2E20000E3B2B4B30101E4B5B7B641
:10092A000101E5B8BAB90101E6E6BCBC0100E7E796
:10093A00E7E70000E8E8E8E80000E9E9E9E900009B
:10094A00EAEAEAEA0000EBEBEBEB0000ECBDBFBE23
:10095A000101EDBDBFBE0101EEEEEEEE0000EFEFCC
:10096A00EFEF0000F0F0F0F00000F1F1F1F100001B
:10097A00F2F2F2F20000F3F3F3F30000F5F5F5F505
:10098A000000F6F6F6F60000F7F7F7F70000F8F8B9
:10099A00F8F80000FBF9FBFA0101BBBBF4F4010013
:1009AA00811C1E1D010190181A19010198141615AF
:1009BA0001018E8E121201008D108D100101102777
:1009CA00E80364000A0001000010000110000100A1
:1009DA00C10001002D4E414E00494E460000010063
:1009EA006002DA0901006502DC090000F894EE27CA
:1009FA00ECBBF1E0FBBFEBBFE5BF8DE0A2E0BB279C
:100A0A00ED938A95E9F780E098E0A0E6ED930197E7
:100A1A00E9F7E8EEF9E085919591009761F0A591E3
:100A2A00B59105901590BF01F00105900D920197BF
:100A3A00E1F7FB01F0CFEFE5EDBFE8E0EEBFC0E67E
:100A4A00D2E00C949A06C19A88E08A95F1F7C19887
:100A5A0088E08A95F1F70895C29AC39AC498C09813
:100A6A00EFE3EBBBF0DF0895BA93AA931A93C49805
:100A7A00C098A981BA81A034E0E0BE0720F4C29AE6
:100A8A00C398198105C0C39AC298E981E0541E2F00
:100A9A00E12FE064EF771E2F1BBBD5DF18813BC027
:100AAA00BA93AA931A93C498C098E981E86BEF7B2A
:100ABA001E2F1BBBC8DF18812EC0BA93AA93AA8126
:100ACA00BB81D2DFA881B981EBDF24960895AA936E
:100ADA00C49AC098E881EBBB83E08A95F1F7B3DF4B
:100AEA0021960895AA931A930A93E0E0F0E00E94EF
:100AFA000607E0E4F0E00E940607C29A00E010E070
:100B0A000134E0E01E072CF4A0E0E1DF0F5F1F4F85
:100B1A00F7CF19810881239608951A930A9300E062
:100B2A0010E00830E0E01E072CF4A02FDBDF0F5F97
:100B3A001F4FF7CF099119910895AA931A9310E0BC
:100B4A00E0E0EABBC09AC49AA981E0E40E94D30714
:100B5A00E03011F4C29801C0C29AC29B02C0C39885
:100B6A0001C0C39A83E08A95F1F7C19A83E08A9516
:100B7A00F1F7C19885E38A95F1F7C19A83E08A95DE
:100B8A00F1F719B3C19883E08A95F1F7EFEFEABB61
:100B9A00E12F188122960895AA931A930E940C07AE
:100BAA00E981F0E0309761F4EA81E770A1E00E9400
:100BBA00C407E095EF93AC81C0DFAF91EA230EC082
:100BCA00E130A0E0FA0759F4EA81E770A1E00E9457
:100BDA00C407EF93AC81B1DFAF91EA2B1E2F0E94BD
:100BEA000C07A12F74DF188126960895AA931A93E9
:100BFA000A930E811F81EC81FD81AE81BF81EA0FCC
:100C0A00FB1F0E171F0780F4E885F985FA93EA930C
:100C1A001A930A93AE81C0DFEB81F0E03196F0E0DF
:100C2A00F0E00E0F1F1FE7CF198108812A96089559
:100C3A00AA930E94F3073E8110E0EE81FF81A12F63
:100C4A00B0E0AE17BF0708F050C0AE81BF810E9466
:100C5A00D807BF01A12FBB27E12FF0E00E94E007D0
:100C6A00DB01AE1BBF0B0E94ED060E2F0E94170779
:100C7A000E9424070E9417070E942B07A8858CDF71
:100C8A000E9430070E9435070E9424070E943007FD
:100C9A000E9435070E942B07A8857EDF0E943A072B
:100CAA00329700F10E9442070E9452070E945C0795
:100CBA000E9442070E9463070E943A070E945C074B
:100CCA000E9468070E946E070E9452070E945C07F2
:100CDA000E9468070E946E070E9463070E943A07F3
:100CEA000E945C07302F1F5FA8CF0E9475070E94E1
:100CFA007F070E9475070E9435070E942B07E02F85
:100D0A00F0E00E945C070E9468070E947F070E9429
:100D1A0068070E9435070E942B07E02FF0E00E9427
:100D2A005C070E94F8072C96089500E410E020E280
:100D3A0030E0EFEFEABBE7BB8FDEEFDE0D35E0E038
:100D4A001E072CF40E9486070E949607F7CF0D37DC
:100D5A00E0E01E072CF40E9486070E949E07F7CF48
:100D6A000536E0E01E072CF00E94A6070E949E07A7
:100D7A00F7CF0734E0E01E072CF00E94A6070E9476
:100D8A009607F7CF00E410E020E230E0D7CFFFCF9C
:100D9A00BA93AA93E991F99130971AF4E095F095EC
:100DAA0031960895BA93AA93A991B991E991F991C3
:100DBA00AE17BF070CF0FD010895BA93AA93A99143
:100DCA00B991E991F991EA17FB070CF0FD01089531
:100DDA00BA93AA93A991B991EE27002460E8E894FE
:100DEA00162E169407941E2A1EF0A015B10518F0A7
:100DFA00A019B109E62BB7FBAA0FBB1F669580F7AE
:100E0A000895FA93EA93AC81BB270C946205EC81AE
:100E1A00FD81FA93EA93EC81FD810E94CC07DF0100
:100E2A000C946205E12FF0E0AA85BB85EA0FFB1F4F
:100E3A00FA93EA93E02FF0E0AA85BB850895EA0FBA
:100E4A00FB1FFA93EA93A8850C94D105AE1BBF0B3E
:100E5A00BA93AA930895E12FF0E0AA85BB85F6CF4D
:100E6A00E02FF0E0AA85BB850895A32FBB27E02FCA
:100E7A00F0E0AE1BBF0B0C94CD06E12FF0E03197EA
:100E8A00AA85BB85EA0FFB1FFA93EA93E32FF0E0EA
:100E9A00FA93EA93A02FBB2708950E94E206AA8537
:100EAA00BB85EA0FFB1F3196FA93EA93DECFFA93DA
:100EBA00EA93EB85EA93AB850C94FB050E94D7066F
:100ECA00AA85BB85C3CFE12FF0E03197AA85BB8500
:100EDA00BDCFE32FF0E0FA93EA93A02FBB27089542
:100EEA00E12FF0E03197AA85BB85EA0FFB1FFA9341
:100EFA00EA930895EA85FB85FA93EA93E02FF0E0F6
:100F0A00D6CF1A930A933A932A93E3E0F0E0FA933E
:100F1A00EA93E0E0EA93A1E00E941D060F5F1F4FEB
:100F2A0008952F5F3F4FA4E6B0E00E94B6070C94E5
:100F3A00920521503040A4E6B0E00E94B6070C9416
:100F4A0092051A930A933A932A93E3E0F0E0FA930C
:100F5A00EA93E0E0EA93A1E00E941D0601501040E6
:100F6A000895109639F080ED97E00197F1F7A8956A
:100F7A001197C9F70895F195E195F0400895EE2388
:100F8A000E2EEA2F19F0EE0F0A94E9F70895F69556
:100F9A00E795F695E795F695E7950895AE17E1E09A
:100FAA0008F0EE270895FA9FF02DEB9FF00DEA9FC7
:100FBA00E02DF10D089504D0F6DF0EF4DCDF08957C
:100FCA00E894F7FF02C0D7DF6894B7FF06C0A09580
:100FDA00B095119600F8039400FA08953A932A936B
:100FEA001A930A9308953B812A81198108810895E9
:00000001FF
