:020000000C945E
:100002003B000C9400000C9400000C9400000C9433
:1000120000000C9400000C9400000C9400000C945E
:1000220000000C9400000C9400000C9400000C944E
:1000320000000C9400000C9400000C9400000C943E
:1000420000000C9400000C9400000C9400000C942E
:1000520000003A0020002F0001002D4E414E0049C1
:100062004E46000080C0010060015A000200640197
:1000720066000000F894EE27ECBBF1E0FBBFEBBF9B
:10008200E5BF8DE0A2E0BB27ED938A95E9F780E01A
:1000920094E0A0E6ED930197E9F7E8E6F0E08591B8
:1000A2009591009761F0A591B59105901590BF01CA
:1000B200F00105900D920197E1F7FB01F0CFEFE51A
:1000C200EDBFE4E0EEBFC0E6D1E00C9468002397F8
:1000D200E0E0EABBEBBBE7BBE8BBE4BBE5BBE1BBF3
:1000E200E2BBE3BFE2BFECBFEFBDEEBDEDBDECBDD9
:1000F200E7BDE6BDEBBDEABDE9BDE8BDE2BDE5BDDC
:10010200E4BDE3BDE9BFE5BFE4BFEAB9E0E8E8B9B1
:10011200E0E0E0BFE6B9EDB9E6BF0E946602E0E0CA
:10012200EA93EA93A0E00E942201A4E10E94DF0187
:100132000E949C01EDB7FEB7FA93EA931F93EDB7C5
:10014200FEB7FA93EA930F93ADB7BEB73F930E94FF
:100152003B013F910F911F91EDB7FEB7FA93EA93DE
:100162002F93EDB7FEB7FA93EA935F93EDB7FEB71D
:10017200FA93EA934F93DE0118960E9454014F912D
:100182005F912F91E0E0EA93A1E00E948F01E12FBD
:100192000E941A02E02F0E941A02E32F0E942902F3
:1001A200E0E0EA93A2E00E948F01E22F0E9429027E
:1001B200A6E5B0E00E94CC01E52F0E942902A8E545
:1001C200B0E00E94CC01E42F0E942902A8E5B0E031
:1001D2000E94CC01EA810E942902A4EFB1E00E94B0
:1001E200B702A6CFFFCFBA93AA93A991B991E99189
:1001F200F99130962AF4E095F09531966DE26D937F
:10020200E89480E197E20DD088EE93E00AD084E68C
:10021200992707D08AE005D06E2F10D066276C93FD
:1002220008956627E817F90720F06395E81BF90B94
:10023200C9F7662311F416F008956894605D6D9312
:100242000895AA93EA81E370EA83E981E03019F024
:10025200EA81E061EA83E881E03019F0EA81E0684E
:10026200EA830E943402A7E00E949F02AA810E94B0
:100272003902A2C0BA93AA930E943402A0E00E945B
:1002820039020E943D020E9445020E944C020E94D5
:100292005202AE2F0E940D02AC81BD81EC930E94EE
:1002A2007A0226960895BA93AA930E943402A3E092
:1002B2000E9439020E943D02AE81BF81EC930E94EE
:1002C2004C02AC81BD81EC930E944C020E9452020E
:1002D2000E9445020E947A0228960895AA93EBB3DF
:1002E200EF70AE2FE881E07FEA2BEBBB8DE08A95C1
:1002F200F1F7DA9A8DE08A95F1F7DA988DE08A952E
:10030200F1F788C0AA93A881E9DFE881E295E88342
:10031200A881E4DF85E88A95F1F77CC0AA93E88199
:10032200F0E0EC59FE4FE081A981AE0FEBDF59807E
:10033200488022960895A2E00E945802ACE0E2DFD3
:10034200A1E00E945802E0E04E2E5E2E0895AA938C
:10035200A881AA3011F0571448F0E0E0EA934394E0
:10036200A42DDCDFA881AA3009F454C05394D89A92
:10037200A881C8DFD8984EC0BA93AA931A93A981CC
:10038200BA81ED91A983BA831E2FE03019F0A12F13
:10039200DEDFF5CF10C0BA93AA931A93E981FA81EE
:1003A2003196E983FA833197E4911E2FE03019F0F8
:1003B200A12FCDDFF3CF188123960895AA93EAB334
:1003C200E06FEABBD29AD09AD19ADA98D898D998A3
:1003D2007880E881E058E0936601E881E054E09398
:1003E2006701A4E1B0E00E94B7020E945E020E948F
:1003F2005E020E945E02A0E271DF88EC90E001974B
:10040200F1F7A8E27FDFA4E07DDFA5E87BDFA6E0CD
:1004120079DF91DF21960895AA93E881E295EF7042
:10042200AE2FAA0FAA0FEA0FEE0FA991AF70EA0F33
:100432000895F0E0FA93EA93AA81BB810E94F40046
:10044200A881B9810E94BD01A4E5B0E00C94CC0161
:10045200F0E0FA93EA93AA81BB810E94F400A8819A
:10046200B9810C94BD010E946B02A0ED0C949F0215
:100472000E949F020C947A020E946B02A1ED0E94DC
:100482009F02A1E00C948402AE2F0E940D02A8816B
:10049200B981EC930895A1E00E948402AE2F0C94DE
:1004A2000D02AA81BB81EC93A0E00C9484020E940D
:1004B2008301A3E0B0E00C94B702A0E30E946F01B5
:1004C20088EC90E00197F1F70895A898A998A09A6E
:1004D200A19815C0A198A098EE270000999B0895B5
:1004E200989B089504D0A19A02D0A09AE1E06DE011
:1004F20007C0A19AA09A03D0A098F9DFA1986BE156
:100502006A95F1F7089578E0A098F1DF989BFECF05
:10051200EEDF889499990894A09AF1DFEE1F7A95FC
:1005220099F77A2F772311F4A19801C0A19ADFDFFE
:10053200A098E5DFA09ADBDFA198D9CF78E0AA0FD7
:1005420010F4A19801C0A19ADADFA098D0DF989B9D
:10055200FECFCDDFA09A7A9591F7A198C8DFA09837
:10056200CEDFE1E09999EE27A09AC1CF109639F03B
:1005720080ED97E00197F1F7A8951197C9F70895D3
:00000001FF
