:020000020000FC
:1000000008E00EBF0FE50DBF0FEF04BB01BB0BBB3C
:1000100000E00ABB07BB09B3003029F040E050E024
:1000200060E070E008C049E059E069E079E017C09D
:1000300009B30030A1F0493011F0439524C040E0ED
:10004000593011F053951FC050E0693011F063959D
:100050001AC060E0793009F0739570E0A1F040308B
:1000600011F04A9510C049E0503011F05A950BC07C
:1000700059E0603011F06A9506C069E0703009F00F
:100080006A9579E000C00EE002BB072F0E94640071
:1000900005BB0E948C000DE002BB062F0E9464008D
:1000A00005BB0E948C000BE002BB052F0E94640080
:1000B00005BB0E948C0007E002BB042F0E94640075
:1000C00005BB0E948C00B4CF003011F40FE30895FB
:1000D000013011F406E00895023011F40BE50895A3
:1000E000033011F40FE40895043011F406E6089586
:1000F000053011F40DE60895063011F40DE708956A
:10010000073011F407E00895083011F40FE708955F
:10011000093009F40FE6089511E02FEF30EA3A951F
:0C012000F1F72A95D9F71A95C1F7089558
:00000001FF
