:020000020000FC
:020000000EC030
:10001C0055C008E00EBF0FE50DBF0FEF04BB01BBD1
:10002C0007BB0BBB00E00ABB09B3003049F040E052
:10003C0050E060E070E080E0A1E0BAE0C0E008C011
:10004C0049E059E069E079E0AFEFBFEFC9E000C0EB
:10005C0090E09FBD9CE09EBD9AE79BBD92E19ABD4E
:10006C0092E199BF78940EE002BB072F0E947500B5
:10007C0005BB0E949D000DE002BB062F0E9475007F
:10008C0005BB0E949D000BE002BB052F0E94750072
:10009C0005BB0E949D0007E002BB042F0E94750067
:1000AC0005BB0E949D0009B3003021F0A1E0BAE02D
:1000BC00C0E0D9CFAFEFBFEFC9E0D5CF4A0F4B1798
:1000CC0069F44C2F5A0F5B1749F45C2F6A0F6B17AE
:1000DC0029F46C2F7A0F7B1709F47C2F18950030BC
:1000EC0011F40FE30895013011F406E00895023085
:1000FC0011F40BE50895033011F40FE40895043066
:10010C0011F406E60895053011F40DE60895063055
:10011C0011F40DE70895073011F407E00895083045
:10012C0011F40FE70895093009F40FE6089511E072
:10013C002FEF30EA3A95F1F72A95D9F71A95C1F7CE
:02014C00089514
:00000001FF
