:0E0000000C9443000C9400000C9400000C942F
:10000E0000000C9400000C9400000C9400000C9462
:10001E0000000C9400000C9400000C9400000C9452
:10002E0000000C9400000C9400000C9400000C9442
:10003E0000000C9400000C9400000C9400000C9432
:10004E0000000C940000FC929292FC8080808080D4
:10005E00FEC0C0C08080808080FE80808080800056
:10006E000102040810204080000000000000000083
:10007E001900600254000000F894EE27ECBBF1E08A
:10008E00FBBFEBBFE5BF8DE0A2E0BB27ED938A95EA
:10009E00E9F780E098E0A0E6ED930197E9F7EEE747
:1000AE00F0E085919591009761F0A591B59105903D
:1000BE001590BF01F00105900D920197E1F7FB013C
:1000CE00F0CFEFE5EDBFE8E0EEBFC0E6D2E00C9476
:1000DE007000659780E1A5E0B0E0EEE6F0E00E94EA
:1000EE00B800EFEFE4BBE1BBE0E0E883A881AA3003
:1000FE0060F5E1E0EA83AA81AB3018F5E1E0EB832D
:10010E00E0E0EC83AC81A530C0F4EC81A881EA0F6D
:10011E00E983F0E0E05AFD4FE081E2BBEB81E5BB05
:10012E00A4E0B0E00E94AE00EB81EE0FEB83E0E0C6
:10013E00E5BBEC81EF5FEC83E5CFEA81EF5FEA830D
:10014E00DACFE881EF5FE883D1CFCECFFFCF109625
:10015E0039F080ED97E00197F1F7A8951197C9F75F
:10016E000895AC0FBD1F05900D928A95E1F7089585
:00000001FF
