:0C0000000C943D000C946A000C946E00FF
:10000C000C9483000C9400000C9400000C940000E1
:10001C000C9400000C9400000C9400000C94000054
:10002C000C9400000C9400000C9400000C94000044
:10003C000C9400000C9400000C9400000C94000034
:10004C000C9400000C9400000001000080C0010022
:10005C002D4E414E00494E46000003000500540051
:10006C00020060025800010064025A000000F8947B
:10007C00EE27ECBBF1E0FBBFEBBFE5BF8DE0A2E0F0
:10008C00BB27ED938A95E9F780E098E0A0E6ED9325
:10009C000197E9F7E6E6F0E085919591009761F01C
:1000AC00A591B59105901590BF01F00105900D92A9
:1000BC000197E1F7FB01F0CFEFE5EDBFE8E0EEBF14
:1000CC00C0E6D2E00C949C000E948001560C03C048
:1000DC000E9480015618AAE0B0E00E949C01E991B0
:1000EC00EFBFF991E991B991A99199918991799180
:1000FC006991F990199009901895EA93FA93EFB7D2
:10010C00EA93AB9B02C0AB9801C0AB9AE1E0F0E084
:10011C00E615F70519F4EAE0F0E002C0E1E0F0E0E2
:10012C003F01E991EFBFF991E9911895E0E0E5BB4A
:10013C00EFEFE4BBEBB7E06EEBBFEAE0E5BFE0E06E
:10014C00E4BFE0EEEABFA0E179D07894E0E0EA9376
:10015C00A0E035D0E52DF0E0E7FDFFEFFA93EA9350
:10016C00D8010E945201D80158D0A0E241D0A0E29F
:10017C003FD0A2E3B0E00E949C01E8CFFFCFAA934E
:10018C00E5B3EF70AE2FE881E07FEA2BE5BB8DE0A5
:10019C008A95F1F7AA9A8DE08A95F1F7AA988DE0E5
:1001AC008A95F1F777C0AA93A881E9DFE881E295F7
:1001BC00E883A881E4DF85E88A95F1F76BC0AA9300
:1001CC00E881F0E0E05AFD4FE081A981AE0FEBDF52
:1001DC004980988022960895A2E00E948E01ACE09E
:1001EC00E2DFA1E00E948E01E0E09E2E4E2E0895EB
:1001FC00AA93A881AA3011F0481448F0E0E0EA93E1
:10020C009394A92DDCDFA881AA3009F443C0439450
:10021C00A89AA881C8DFA8983DC0BA93AA931A934C
:10022C00A981BA81ED91A983BA831E2FE03019F010
:10023C00A12FDEDFF5CF188123960895AA93E4B39E
:10024C00E06FE4BBA29AA09AA19AAA98A898A99840
:10025C008880E881E058E0936202E881E054E09302
:10026C006302A4E1B0E00E949C010E9494010E94F0
:10027C0094010E949401A0E282DF88EC90E0019747
:10028C00F1F7A8E290DFA4E08EDFA5E88CDFA6E012
:10029C008ADFA2DF21960895BA93AA93A991B99106
:1002AC00E991F99130962AF4E095F09531966DE24A
:1002BC006D93E89480E197E20DD088EE93E00AD03C
:1002CC0084E6992707D08AE005D06E2F10D06627D8
:1002DC006C9308956627E817F90720F06395E81BDF
:1002EC00F90BC9F7662311F416F008956894605D54
:1002FC006D9308950A921A92FA926A937A938A935A
:10030C009A93AA93BA93EA93FA93EFB7EA93089560
:10031C000E94D900A3E0B0E00C949C01A0E30E94E1
:10032C00C50088EC90E00197F1F70895109639F02C
:10033C0080ED97E00197F1F7A8951197C9F708950B
:00000001FF
