:060000000C945C000C945E
:1000060000000C9400000C9400000C9400000C946A
:1000160000000C9400000C9489000C9400000C94D1
:1000260000000C9400000C9400000C9400000C944A
:1000360000000C9400000C9400000C9400000C943A
:1000460000000C9400000C9400000C9400000000CA
:1000560000003A0017002020004C434420434C4F38
:10006600434B003A000001002D4E414E00494E46DA
:10007600000080C0080004005400030060025C0019
:10008600030063025C00030066025C000A0069026A
:100096005F00020073026900020075026900020037
:1000A6007702690001007D026C000200810278007F
:1000B6000000F894EE27ECBBF1E0FBBFEBBFE5BF19
:1000C6008DE0A2E0BB27ED938A95E9F780E098E002
:1000D600A0E6ED930197E9F7EAE7F0E085919591BF
:1000E600009761F0A591B59105901590BF01F001BB
:1000F60005900D920197E1F7FB01F0CFEFE5EDBF1B
:10010600E8E0EEBFC0E6D2E00C9415010A921A921E
:10011600FA926A937A938A939A93AA93BA93EA93F2
:10012600FA93EFB7EA93F20131962F01E8E1F0E096
:10013600EA15FB0549F4E3E00E941702A0E6B2E0E7
:100146000E94D701AA24BB24ECE3F0E0E815F905E8
:1001560061F4E6E00E941702A3E6B2E00E94D7012E
:1001660088249924F50131965F01ECE3F0E0E61569
:10017600F70561F4E9E00E941702A6E6B2E00E94E4
:10018600D70166247724F40131964F01EAE0F0E0C6
:10019600E415F50529F444245524F30131963F016D
:1001A6005A924A92A9E7B2E00E945901ECE00E94F5
:1001B6001702A9E7B2E00E94D7017A926A92AAE7EB
:1001C600B2E00E945901E9E00E941702AAE7B2E0F4
:1001D6000E94D7019A928A92ABE7B2E00E94590137
:1001E600E6E00E941702ABE7B2E00E94D701BA929E
:1001F600AA92ACE7B2E00E945901E3E00E9417021E
:10020600ACE7B2E00E94D701E991EFBFF991E9911D
:10021600B991A9919991899179916991F9901990DA
:1002260009901895EFEFE4BBE0E0E5BBEFBDECE02D
:10023600EEBDE0E0EDBDECBDE7BDE6BDECE0EBBD3F
:10024600E5E3EABDE0E0E9BDE8BDE0E1E9BFE0E005
:10025600EABBEBBBE7BBE8BBE4BBE5BBE1BBE2BB90
:100266007894A0E10E94E8010E94B401E3E0EA93D9
:10027600A0E00E94A701A9E6B2E00E94D701EBE048
:100286000E941702A3E7B2E00E94D701E5E00E94B0
:100296001702A5E7B2E00E94D701E8E00E94170224
:1002A600A7E7B2E00E94D701FFCFFFCFBA93AA9388
:1002B600A991B991E991F99130962AF4E095F095D2
:1002C60031966DE26D93E89480E197E20DD088EE69
:1002D60093E00AD084E6992707D08AE005D06E2FEE
:1002E60010D066276C9308956627E817F90720F063
:1002F6006395E81BF90BC9F7662311F416F0089508
:100306006894605D6D930895AA93E5B3EF70AE2F80
:10031600E881E07FEA2BE5BB8DE08A95F1F7AA9AA2
:100326008DE08A95F1F7AA988DE08A95F1F77AC063
:10033600AA93A881E9DFE881E295E883A881E4DF52
:1003460085E88A95F1F76EC0AA93E881F0E0EF5749
:10035600FD4FE081A981AE0FEBDFD980C8802296E0
:100366000895A2E00E941B02ACE0E2DFA1E00E9439
:100376001B02E0E0CE2EDE2E0895AA93A881AA30B5
:1003860021F0E0918502DE1648F0E0E0EA93C3949E
:10039600AC2DDADFA881AA3009F444C0D394A89A18
:1003A600A881C6DFA8983EC0BA93AA931A93A981DA
:1003B600BA81ED91A983BA831E2FE03019F0A12FDF
:1003C600DCDFF5CF188123960895AA93E4B3E06F96
:1003D600E4BBA29AA09AA19AAA98A898A998E8819B
:1003E600E0938502E058E0938302E881E054E093CD
:1003F6008402A4E1B0E00E9429020E9421020E9428
:1004060021020E942102A0E27FDF88EC90E00197A2
:10041600F1F7A8E28DDFA4E08BDFA5E889DFA6E08F
:1004260087DF9FDF21960895EA93A1E00C94A70148
:100436000E949B01A3E0B0E00C942902A0E30E9475
:10044600870188EC90E00197F1F70895109639F04E
:1004560080ED97E00197F1F7A8951197C9F70895F0
:00000001FF
