:0C0000000C9441000C9400000C940000D3
:10000C000C9400000C9400000C9400000C94000064
:10001C000C9400000C9400000C9400000C94000054
:10002C000C9400000C9400000C9400000C94000044
:10003C000C9400000C9400000C9400000C94000034
:10004C000C9400000C94000054454D504552415402
:10005C005552450001002D4E414E00494E460000C0
:10006C0080C00C00600254000100710260000200AC
:10007C0075026C000000F894EE27ECBBF1E0FBBFBE
:10008C00EBBFE5BF8DE0A2E0BB27ED938A95E9F7C6
:10009C0080E098E0A0E6ED930197E9F7EEE6F0E05A
:1000AC0085919591009761F0A591B591059015906A
:1000BC00BF01F00105900D920197E1F7FB01F0CF24
:1000CC00EFE5EDBFE8E0EEBFC0E6D2E00C947D00BA
:1000DC00AA93E881E064E7B98BE18A95F1F7369A47
:1000EC00349BFECF349AE4B1F5B10C943802E0E0C5
:1000FC00EBBBEABBE8BBE7BBEFEFE5BBE0E0E4BB87
:10010C00E2BBE1BBE3BFE2BFECBFEFBDEEBDEDBDBB
:10011C00ECBDE7BDE6BDEBBDEABDE9BDE8BDE2BDAA
:10012C00E5BDE4BDE3BDE5BFE4BFE9BFEAB9E0E886
:10013C00E8B9E0E0E0BFE0E4E7B9E5E8E6B9E0E023
:10014C00EDB9E6BFA0E10E940C020E94DA01E2E0E8
:10015C00EA93A0E00E94CD01A0E6B2E00E94FB0170
:10016C00A0E0B6DF2F010E948F02AEE3B9E78CE965
:10017C0090E40E94DE030E941D032F01D201EAE0ED
:10018C00F0E00E94B5042F01E5E0EA93A1E00E94A3
:10019C00CD01F2010E948F020E94D704E2E0EA93A3
:1001AC00ACE6B2E00E94E400ACE6B2E00E94FB01D7
:1001BC00A8EEB3E00E94DE02D3CFFFCFBA93AA938E
:1001CC002497E0E0E883E983EA83EFE3EB831A9377
:1001DC000A93EB85FC85EF3FAFEFFA0739F40E94E9
:1001EC009402A2E6B0E00E948202ADC0EF3FAFE7FE
:1001FC00FA0739F40E949402A3E6B0E00E9482024E
:10020C00A2C0AC85AA2362F4E985FA856B857C854E
:10021C000E94E8020E9499020E949E02EDE2EC9379
:10022C00A885A73010F0E6E0E8871885E12F11507B
:10023C00E03039F00E94A5020E94AA020E94B1028D
:10024C00F5CF0E94B6020E948E030E94990210E024
:10025C00E0E0F0E060E87FE30E94B1020E94B602A9
:10026C000E94710488F00E94A5020E94BF020E94A5
:10027C00B1021F5F173238F00E949402A7E6B0E07B
:10028C000E94820260C0EACF103029F40E949E02C4
:10029C00E0E3EC932DC0E12F1150E03049F10E94C6
:1002AC00A5020E94AA02A0E0B0E080E09FE30E94B9
:1002BC008E03DF01CB010E946B020E94B1020E94EF
:1002CC00B6020E942C040E941B030E2F0E949E0259
:1002DC00E02FE05DEC93E02FF0E00E94A5020E947D
:1002EC008F020E94DE030E94C6020E94CB02D3CF73
:1002FC00E885E03021F10E949E02EEE2EC93E88565
:10030C00E150E887EF5FD9F00E94C6020E94BF025D
:10031C000E949902E985FA856B857C850E941B03F6
:10032C000E2F0E949E02E02FE05DEC93E02FF0E098
:10033C000E94C6020E948F020E94CB02E0CFAE81C7
:10034C00BF81E0E0EC93198108812D960895AA9362
:10035C00E5B3EF70AE2FE881E07FEA2BE5BB8DE0D3
:10036C008A95F1F7AA9A8DE08A95F1F7AA988DE013
:10037C008A95F1F777C0AA93A881E9DFE881E29525
:10038C00E883A881E4DF85E88A95F1F76BC0AA932E
:10039C00E881F0E0EB58FD4FE081A981AE0FEBDF77
:1003AC007980688022960895A2E00E94D002ACE089
:1003BC00E2DFA1E00E94D002E0E06E2E7E2E0895D6
:1003CC00AA93A881AA3011F0791448F0E0E0EA93DE
:1003DC006394A62DDCDFA881AA3009F443C0739482
:1003EC00A89AA881C8DFA8983DC0BA93AA931A937B
:1003FC00A981BA81ED91A983BA831E2FE03019F03F
:10040C00A12FDEDFF5CF188123960895AA93E4B3CC
:10041C00E06FE4BBA29AA09AA19AAA98A898A9986E
:10042C009880E881E058E0937702E881E054E0930B
:10043C007802A4E1B0E00E94DE020E94D6020E9483
:10044C00D6020E94D602A0E282DF88EC90E00197EF
:10045C00F1F7A8E290DFA4E08EDFA5E88CDFA6E040
:10046C008ADFA2DF219608950E94DC047B816A81D9
:10047C00F981E88177FB770F67FD7160972F9E57A5
:10048C0081F078F0983190F4AA27BB27882708943C
:10049C008795B795A7959A95D1F7EA23FB236823FF
:1004AC0005C0E8947727EE27FF2766276F777695A8
:1004BC0008F4606877F9A991B99189919991EA1733
:1004CC00FB076807790797FB08950E94DC040E94DC
:1004DC00CD040E943A020E94D20419F40E94C8046E
:1004EC0009C0E6F70E94C804A0E0B0E080E89FE3F2
:1004FC000E94870324960895BA93AA93E991F991DF
:10050C00A991B991CD0105900D920020E1F7FC0164
:10051C0008950E949D040E9454030895EE81FF816A
:10052C00FA93EA930895E987FA876B877C87089595
:10053C00AE81BF811196AE83BF8311970895AA81B6
:10054C00BB818C819D810895EDECFCEC6CEC7DE322
:10055C000E94DE030895EA83FB836C837D830895F8
:10056C00EA81FB816C817D81A985BA858B859C850F
:10057C000895E0E0F0E060E271E40E94DE0308958B
:10058C00A985BA858B859C8508950E94E1040E94FB
:10059C008703C9CF0E94C101A3E0B0E00C94DE0236
:1005AC00A0E30E94AD0188EC90E00197F1F708956B
:1005BC00109639F080ED97E00197F1F7A895119717
:1005CC00C9F7089530976040704009F0705808954D
:1005DC00552342F4503811F4E0FF04C03196691FE2
:1005EC00791F6BF050E8572711F45F93CFC05F3F32
:1005FC0031F0660F000C57956795752F08955F9332
:10060C0000200AF0CFC0C8C050E8192E1522880F60
:10061C00991F9527550F879550E8072E0522660FD1
:10062C00771F7527550F67950895689401C0E89456
:10063C005F93F2DF703818F07F3F08F4A7C056E1E3
:10064C00571BAAF4519558300EF4593030F0EFEF97
:10065C00FFEF6FEF7FE777F91AC077275523B9F0D3
:10066C00EE0FFF1F661F771F5A95D1F710C0772723
:10067C00583028F0EF2FF62F672F5850F9CF55230D
:10068C0031F076956795F795E7955A95D1F7002057
:10069C000AF445D15F910895689401C0E8943097AD
:1006AC0060407040B1F0002426F0772312F40094DF
:1006BC0036D1172E7EE1112032F07A95EE0FFF1F06
:1006CC00661F111CF9CFEF2FF62F612D5F938ADF78
:1006DC005F9108954F93AF01FD01DA01AB01BC01AD
:1006EC00CA01402D012C142E4F910895EA0FFB1FC7
:1006FC00681F0895E095F0956095EF5FFF4F6F4F81
:10070C0008955F9381DF903871F150E8152604C08D
:10071C005F937ADF903839F1703821F1572F591BDC
:10072C002BF112F4D7DFFACF583118F0AA27BB27D8
:10073C008827583028F0AB2FB82F88275850F9CF7E
:10074C00552329F08695B795A7955A95D9F7502D2D
:10075C00512572F0CBDF38F46795F795E7957395D3
:10076C0013F420C0B7DF3EDF5F910895D8F7FBCFBD
:10077C00EA1BFB0B680B51F010F40094BBDF6623F3
:10078C0092F3EE0FFF1F661F7A95CBF7EE27FF272C
:10079C00662777275F910895EFEFFFEF6FE77FEF05
:1007AC005F910895EFEFFFEF6FE77FE75F9108959B
:1007BC005F932ADF703851F3903841F30124089489
:1007CC00791F23F41CF300203AF3ECCF0F921F9304
:1007DC002F933F934F93112722279927689FA001AE
:1007EC008F9F302D410D591F6B9F300D411D591F8F
:1007FC008E9F27D0BF9F25D06A9F23D0BE9F1DD030
:10080C00AF9F1BD0AE9F110D291F391F491F591FB8
:10081C00E32FF42F652F522F4F913F912F911F9162
:10082C000F9066232AF0550FEE1FFF1F661F02C0A4
:10083C0073954BF2CDDE5F910895100D211D391F7C
:10084C0002C0200D311D491F591F08955F93DCDE36
:10085C00703821F411200AF49FCFA4CF903809F4FA
:10086C0095CF01240894970B1BF4D4F30020F3CFFD
:10087C00792F1F932F933F934F93112411272227E6
:10088C0033274427552790E2AE17BF078607410749
:10089C0030F0AE1BBF0B860B410B089401C0889443
:1008AC00551F221F331F111CAA1FBB1F881F441F5B
:1008BC009A9551F7F901612D4F913F912F911F910D
:1008CC00662332F0550FEE1FFF1F661F7A9543F219
:1008DC007FDE5F91089599239AF0772342F0971762
:1008EC0048F029F4AE17BF07860720F031F0989432
:1008FC008894089598940894089518948894089569
:10090C007723C2F7971798F3A9F7EA17FB0768073D
:10091C0088F399F3ECCFF195E195F0400895F095BB
:10092C0060957095E195FF4F6F4F7F4F08956F2F36
:10093C00660F660B762F08950024112490E1AA0F00
:10094C00BB1F001C111C0E1A1F0A18F40E0E1F1EC2
:10095C0001C0A1609A9599F7FD01D001089504D0CA
:10096C00EBDF0EF4D8DF0895E894F7FF02C0D3DF75
:10097C006894B7FF06C0A095B095119600F8039443
:10098C0000FA0895E881F9816A817B810895A88134
:10099C00B9818A819B810895E883F9836A837B837B
:1009AC0008957A936A93FA93EA9308959A938A93A3
:1009BC00BA93AA930895182E862F612D192E972F6E
:1009CC00712D1B2EBF2FF12D1A2EAE2FE12D089558
:00000001FF
