:0E0000000C9445000C9400000C9400000C942D
:10000E0000000C9400000C9400000C9400000C9462
:10001E0000000C9400000C9400000C9400000C9452
:10002E0000000C9400000C9400000C9400000C9442
:10003E0000000C9400000C9400000C9400000C9432
:10004E0000000C9400001027E80364000A00010071
:10005E0000100001100001005961736D696E204D92
:10006E006164616E690080C00E00600266000E0061
:10007E006E02660002007C0274000000F894EE2707
:10008E00ECBBF1E0FBBFEBBFE5BF8DE0A2E0BB2711
:10009E00ED938A95E9F780E098E0A0E6ED9301975D
:1000AE00E9F7E6E7F0E085919591009761F0A5916B
:1000BE00B59105901590BF01F00105900D92019735
:1000CE00E1F7FB01F0CFEFE5EDBFE8E0EEBFC0E6F4
:1000DE00D2E00C947200E0E0EABBEBBBE7BBE8BBFE
:1000EE00EFEFE4BBE0E0E5BBE1BBE2BBEBB9E8E17F
:1000FE00EAB9E6E8E0BDE0E0E0BDE3E3E9B9A0E19E
:10010E00A8D073D00E945E011E2FA12F7AD0A12FEE
:10011E000E946201133411F468D020C01E3441F4E1
:10012E000E946901A0E6B2E01BD00E94690116C0D0
:10013E00133671F466247724E8E1F0E06E167F063C
:10014E0034F40E946901F30131963F01F5CF06C0E8
:10015E001D3421F44AD0AEE6B2E06AD0D3CFFFCF41
:10016E00BA93AA935524A881B981EE27A50DBE1F77
:10017E00EC91E03051F0A881B981EE27A50DBE1F9C
:10018E00AC910E9462015394EECF2DC0AA93E5B3B9
:10019E00EF70AE2FE881E07FEA2BE5BB8DE08A950C
:1001AE00F1F7AA9A8DE08A95F1F7AA988DE08A95D3
:1001BE00F1F70C946701AA93A881E8DFE881E29534
:1001CE00E883A881E3DF85E88A95F1F70C9467014F
:1001DE00AA93E881F0E0E458FD4FE081A981AE0FCB
:1001EE00EADF4980988022960895A2E00E946F016E
:1001FE00ACE0E1DFA1E00E946F01E0E09E2E4E2E0A
:10020E000895AA93A881AA3011F0481450F0E0E0A6
:10021E00EA939394A92DDCDFA881AA3011F40C94F3
:10022E0067014394A89AA881C6DFA8980C94670129
:10023E00BA93AA931A93A981BA81ED91A983BA832D
:10024E001E2FE03019F0A12FDCDFF5CF1881239699
:10025E000895AA93E4B3E06FE4BBA29AA09AA19A80
:10026E00AA98A898A9988880E881E058E0937E0221
:10027E00E881E054E0937F02A4E1B0E00E947D01AA
:10028E000E9475010E9475010E947501A0E27EDF39
:10029E0088EC90E00197F1F7A8E28DDFA4E08BDF08
:1002AE00A5E889DFA6E087DFA0DF0C9467015F9BDE
:1002BE00FECFECB10895AA935D9BFECFE881ECB919
:1002CE0021960895ADE00E946201AAE00C946201AD
:1002DE000E94E200A3E0B0E00C947D01A0E30E9436
:1002EE00CD0088EC90E00197F1F70895109639F063
:1002FE0080ED97E00197F1F7A8951197C9F708954A
:00000001FF
