:060000000C9407050C94AE
:1000060000000C9400000C9400000C9400000C946A
:1000160000000C9400000C9400000C9400000C945A
:1000260000000C9400000C9400000C9400000C944A
:1000360000000C9400000C9400000C9400000C943A
:1000460000000C9400000C9400000C9400000000CA
:10005600000000000000000000000000000000009A
:10006600000000000000000000000000000000008A
:10007600000000000000000000000000000000007A
:10008600000000000000000000000000000000006A
:10009600000000000000000000000000000000005A
:1000A600000000000000000000000000000000004A
:1000B600000000000000000000000000000000003A
:1000C60000000000000000000000000000002020EA
:1000D600282868B060202020282A28302020008088
:1000E600804432242020002424243820202020206C
:1000F6002020242A1100202020242A11202030200C
:100106002020242A112020203020302828182024BE
:100116002221242A1100242221242A1120203024DD
:100126002221242A112000808040302020202020F7
:100136002060A060283020202060B06020200030A1
:100146002860A06030200004061D25242020000021
:1001560000000000000000004F0000000000000743
:1001660000070000000000147F147F140000002424
:100176002A7F2A120000002313086462000000365A
:100186004955224000000000050300000000001C45
:100196002241000000000041221C00000000001463
:1001A600083E081400000008083E08080000000089
:1001B6002818000000000008080808080800003099
:1001C6003000000000000020100804020000003E7D
:1001D6005149453E00000000427F400000000042B9
:1001E600615149460000002141454B31000000188D
:1001F60014127F1000000000274545453900003CD9
:100206004A49493000000001710905030000003623
:1002160049494936000000064949291E00000000E8
:1002260036360000000000005636000000000008C8
:10023600142241000000002424242424000000008D
:100246004122140800000002015109060000003294
:100256004979413E0000007E1111117E0000007FA9
:10026600494949360000003E414141220000007FD5
:100276004141221C0000007F494949410000007F9E
:10028600090909010000003E4149493A0000007F82
:100296000808087F00000000417F410000000020A0
:1002A60040413F010000007F081422410000007F0A
:1002B600404040400000007F020C027F0000007FAB
:1002C6000408107F0000003E4141413E0000007FCF
:1002D6000909090600003E4151215E000000007F29
:1002E6000919294600000046494949310000000124
:1002F600017F01010000003F4040403F0000001F19
:100306002040201F0000003F4060403F0000006387
:100316001408146300000007087008070000006155
:10032600514945430000007F41410000000000158F
:10033600167C161500000041417F000000000004F5
:10034600020102040000004040404040000000015D
:100356000204000000000020545454780000007F7E
:100366004444443800000038444444000000003847
:100376004444487F000000385454541800000010CC
:100386007E1101020000000C5252523E0000007F16
:100396000804047800000000447D400000000020AE
:1003A60040403D000000007F10284400000000008F
:1003B600417F40000000007C041804780000007CA7
:1003C6000804047800000038444444380000007CE7
:1003D60014141408000000081414187C0000007C93
:1003E6000804040800000048545454200000000487
:1003F6003F4440200000003C4040207C0000001CA0
:100406002040201C0000001E2010201E000000229C
:1004160014081422000000064848483E0000004424
:1004260064544C44000000083641000000000000FF
:10043600007F0000000000413608000000000008B0
:10044600082A1C08000000081C2A08080000003CB6
:100456004241423C000000302860A0602830202045
:100466002020A020283020202020B020202000306E
:100476002820A020302020202022202228302020C2
:100486002022302220200030282220223020202046
:100496002022212228302020202231222020003034
:1004A6002822212230202020282828B02020202081
:1004B60028282830202000C0A82868B06020000026
:1004C6008080443204000024252438202020302453
:1004D6002221242A11000080804034202020202060
:1004E60020382038201820203820382038206080F6
:1004F6008078203820182020203822392218202001
:10050600382239223820608080782239221830201B
:100516002020242A1100203020302828382060800E
:100526008060302828382020302030282A182030B3
:100536002030282A38206080806030282A38202001
:100546003E302828382020203E30282A38202020F7
:100556002020302828002020203028282020004075
:10056600A0B0282820202020202030282A00202063
:100576002030282A20200040A0B0282A2020202031
:10058600202030282A30202030282A302020001829
:10059600202030282A3020202020302A28322020EF
:1005A600302A28322020608080B2A87A2020222596
:1005B6002525252525192020201C2221202030280C
:1005C6002C2A203F20202020202020201F00202011
:1005D60020201F202020003040403F2020202020C7
:1005E60020203048483020203048483020208040A5
:1005F60030484830202020202020222018002020AB
:1006060020201A2020203040444030202020202066
:100616002030283A2C18202030283A2C3820001870
:100626001414182020200021222428100F0000B0C6
:10063600A87820202020202020A020A028302020BC
:1006460020A030A0202000608080A0501020001E36
:100656002020202020200020302828200000000410
:1006660002023A020201000004063D0504000000F1
:1006760004B6AD7D0400000080C0BFA08000046603
:100686008595A8A848000000003F00000000003043
:100696002820A02028300000302A28320000003010
:1006A600282220222830003028222122283000C08B
:1006B600A8A828B0202000C0A8A8A830202000C0E4
:1006C600A8AA283020200000242424380000000096
:1006D60024252438000000808040300000000000FF
:1006E6008080403400006080807820382018608048
:1006F600807822392218608080603028281860802F
:10070600806030282A1800221408142200002020B5
:100716003E302828180020203E30282A18000000E5
:1007260040A0B0282800000040A0B02A28002020C1
:100736002020202020200018202030282A30006089
:100746008080B2A87A000030282C2A203F00004082
:10075600A9AAA8F0000000006080807E000000408A
:10076600AAA9AAF000000000C02030282830000006
:10077600608088806000000030282830000000007B
:1007860000B0A87800000426252528100F000422B2
:10079600222629100F0000212224A8D0AFA0007025
:1007A600AAA9AA3000000070AAA8AA30000000304A
:1007B6004040502808000030C040D0280800000003
:1007C600027902000000000002780200000000002A
:1007D60000000005050500000004030B0606A0A0A6
:1007E600A00000000000000001010101000000213E
:1007F600222428102F20000000000004030300001C
:10080600808080800000000010105410100000004E
:100816000204020402002024262525202830202454
:10082600262535202020086C8A8AA050102004B680
:10083600AD7D242020200019141518202020040244
:10084600021A222221200040605048504040C1C177
:10085600C1C10000C2C2FEFE0100C3C31F1F0100CA
:10086600C4C4FCFC0100C5C5C5C50101C6BDBFBEEB
:100876000101C7C7C0C00100C88284830101C9C97C
:10088600FDFD0100CA8587860101CB888A890101A1
:10089600CC8BCC8B0101CD8CCD8C0101CE11CE1130
:1008A6000101CFCF13130100D0D08F8F0100D1D11A
:1008B6001B1B0100D2D291910100D39294930101A6
:1008C600D49597960101D5179A990101D69B9D9CBF
:1008D6000101D7D7D7D70000D8D89E9E0101D9D914
:1008E6009F9F0101DAA0A2A10101DBA3A5A401013A
:1008F600DCDCDCDC0000DDA6A8A70101DEA9ABAAD2
:100906000101DFACAEAD0101E0E0E0E00000E1AFE7
:10091600B1B00101E2E2E2E20000E3B2B4B30101E8
:10092600E4B5B7B60101E5B8BAB90101E6E6BCBC63
:100936000100E7E7E7E70000E8E8E8E80000E9E9A2
:10094600E9E90000EAEAEAEA0000EBEBEBEB00007B
:10095600ECBDBFBE0101EDBDBFBE0101EEEEEEEE88
:100966000000EFEFEFEF0000F0F0F0F00000F1F123
:10097600F1F10000F2F2F2F20000F3F3F3F30000FB
:10098600F5F5F5F50000F6F6F6F60000F7F7F7F7D9
:100996000000F8F8F8F80000FBF9FBFA0101BBBB10
:1009A600F4F40100811C1E1D010190181A190101A1
:1009B6009814161501018E8E121201008D108D10DD
:1009C60001011027E80364000A000100001000017D
:1009D60010000100C100393735333232363500593F
:1009E60061736D696E204D6164616E69000001007E
:1009F6002D4E414E00494E46000001006002DA09C4
:100A060001006502F4090000F894EE27ECBBF1E062
:100A1600FBBFEBBFE5BF8DE0A2E0BB27ED938A9558
:100A2600E9F780E098E0A0E6ED930197E9F7E0E0CA
:100A3600FAE085919591009761F0A591B5910590A1
:100A46001590BF01F00105900D920197E1F7FB01AA
:100A5600F0CFEFE5EDBFE8E0EEBFC0E6D2E00C94E4
:100A6600A407C19A88E08A95F1F7C19888E08A952B
:100A7600F1F70895C29AC39AC498C098EFE3EBBB06
:100A8600F0DF0895BA93AA931A93C498C098A981DF
:100A9600BA81A034E0E0BE0720F4C29AC398198157
:100AA60005C0C39AC298E981E0541E2FE12FE06485
:100AB600EF771E2F1BBBD5DF18813FC0BA93AA93D1
:100AC6001A93C498C098E981E86BEF7B1E2F1BBB75
:100AD600C8DF188132C0BA93AA93AA81BB81D2DF3C
:100AE600A881B981EBDF24960895AA93C49AC09889
:100AF600E881EBBB83E08A95F1F7B3DF2196089591
:100B0600AA931A930A930E94D907AC81BB27E3DF05
:100B1600E0E4F0E0FA93EA93AC81BB27DCDFC29A0B
:100B260000E010E00134E0E01E072CF4A0E0DDDF79
:100B36000F5F1F4FF7CF19810881239608951A93E7
:100B46000A9300E010E00830E0E01E072CF4A02F26
:100B5600D7DF0F5F1F4FF7CF099119910895BA9309
:100B6600AA931A93AB81BC818DDFA981BA81A6DFD6
:100B760010E0183040F4ED81FE810E94DE07A4915A
:100B8600B4DF1F5FF6CF18812DC1AA930E94A20879
:100B960020E010E0EC811E17E0F400E00830B8F425
:100BA6000E94E807E695EC93ED81E1703E2F303028
:100BB60021F00E94E807E068EC932F5FEC81E217D2
:100BC60021F4ED81E695ED8320E00F5FE7CF1F5F0F
:100BD600E1CF0E94A70828960895AA93EF97219738
:100BE6000E94A2080E94EF074DDFDE01AB5BBF4FFC
:100BF6000D90BC91A02D62DF10E01830B8F40E9471
:100C0600F607EA0FFB1FFA93EA93FE01E55BFF4F37
:100C16000190F081E02D0E94DE07E491EA93DE0167
:100C2600A95BBF4FAC91B1DF1F5FE7CF00E0FE01CC
:100C3600EC5BFF4FE0810E1708F049C010E018305A
:100C460090F530E0FE01EC5BFF4FE0813E1748F582
:100C5600E32FF0E00E94EF07EA0FFB1FBF01DE0162
:100C6600AC5BBF4FAC91BB27E12FF0E00E94880838
:100C7600DB01AE0FBF1FA034E0E0BE0739F4E0E4AD
:100C8600F0E0FA93EA930E94EF0725DF0E94F60749
:100C9600AE0FBF1FEE27A00FBE1FAC9126DF3F5F32
:100CA600D1CF1F5FCCCFFE01E95BFF4F0190F081F2
:100CB600E02DFA93EA93DE01A95BBF4FED91FD911A
:100CC6003196FE93EE93DF0106DF0F5FB0CF0E94F1
:100CD600A708EF962C960895AA93A981A13009F04A
:100CE60077C0EE81F0E0E138A0E0FA0711F4EAEF10
:100CF60017C0E039A0E0FA0711F4EBEF11C0E839AC
:100D0600A0E0FA0711F4ECEF0BC0EE38A0E0FA070A
:100D160011F4EDEF05C0ED38A0E0FA0711F4EEEF9F
:100D2600EE83AE81A13CA0F0A0916002B091610279
:100D3600A13CE0E0BE0764F00E94FD073596E49111
:100D4600E03031F00E940A083496E491E03009F46C
:100D560018C00E94FD07DF01E0916202F0E03196C3
:100D6600EA0FFB1FE491F0E0FA93EA93E091630245
:100D7600F0E0FA93EA93A0916402BB27F0DEE2E08A
:100D860001C0E0E0E0936202AE81A13C50F00E9417
:100D96000A08DF01E0916202F0E0EA0FFB1FE4912E
:100DA60001C0EE81F0E00E9415080E941508FA9332
:100DB600EA93AE8112DFEE81F0E0E0936002F093F9
:100DC6006102EC81E0936302EA81E09364020AC067
:100DD600EE81F0E00E9415080E941508FA93EA9346
:100DE600AE81FBDE27960895AA931A930A9310E024
:100DF60000E00E941A0818F4AC81A03009F027C060
:100E06000E942308EC91EA930E942A080E942A086D
:100E1600E0E00E942F080E943308AF81B885EA0FF0
:100E2600FB1FEF83F8870E943E08A0E8B0E00E940F
:100E36009B08EA1BFB0BAF81B885EA17FB072CF46E
:100E4600E0E0EF83E8870E9443081F5FD2CF0E944D
:100E56001A0818F4AC81A13009F069C00E94230871
:100E6600AC91A13E21F40E944C08A73C09F002C0B7
:100E760009EF23C00E942308AC91A13E21F40E94F1
:100E86004C08A33C09F002C007EE17C00E942308D5
:100E9600AC91A13E21F40E944C08A23C09F002C08C
:100EA60008EE0BC00E942308AC91A13E21F40E94DB
:100EB6004C08A53C09F001C009EE003079F00A9310
:100EC6000E945408E1E00E942F081E5F0E943E081F
:100ED600AF81B8850E945F0800E018C00E94230811
:100EE600EC91EA930E945408E9850E942F080E941B
:100EF6002308AC91A03219F40E94330802C00E9464
:100F06003E08AF81B8850E945F081F5F0E943E08B9
:100F16003196AF81B885AE17BF0744F40E943E08EC
:100F2600A0E8B0E00E945F080E94430890CFE1EC81
:100F3600F0E0E0936002F0936102198108812B963C
:100F46000895679787E1A0E0B0E0ECEDF9E00E9434
:100F5600AC08EFEFEABBE7BB8DDDF1DDFE013996AC
:100F6600FA93EA930E94D9070E94D9070E9464085F
:100F7600FE01FA93EA930E94D907E1E0F0E0FA93C2
:100F8600EA930E946408A8EEB3E00E946B08D7DDDE
:100F9600E5CFFFCFBA93AA93A991B991EE27FF2780
:100FA6006D91662311F03196FBCF0895E0E0F0E0F5
:100FB600FA93EA9308950E947908DF01E12FF0E0A1
:100FC600EA0FFB1FEC5AFF4F0895AE81BF81EE2753
:100FD600A10FBE1FEC910895DE01A95BBF4F0D90D6
:100FE600BC91A02D0895E12FF0E00E947908DE0162
:100FF60014960895E0916002F0916102E15CF04080
:10100600A6E0B0E00E948008EC5AF74F0895EE8102
:10101600F0E0E15CF040A6E0B0E00E948008EC5A07
:10102600F74F0895FA93EA93EE81FF810895A98513
:10103600BA850E94CD07A12FB0E0AE17BF0708956D
:10104600E12FF0E0A985BA85AE0FBF1F0895E885A8
:10105600F985FA93EA930895EA93A9850C946F06A5
:10106600EA81F0E0E7FDFFEF3896DF01EB81F0E083
:101076000E9488080895EB81A8E0EA9FF001089590
:10108600EB81F0E0AD81BE81EA0FFB1FED83FE83AD
:101096000895E12FF0E0A985BA85EA0FFB1FA1812B
:1010A6000895EC81A8E0EA9FF001A885B985AE1BFA
:1010B600BF0BBA93AA93CBCFAE1BBF0BAF83B88738
:1010C6000895E0E0EA93E1E0EA93A0E00C94F706E5
:1010D600109639F080ED97E00197F1F7A8951197F2
:1010E600C9F70895F195E195F0400895EE0FFF1FB9
:1010F600EE0FFF1FEE0FFF1F0895FA9FF02DEB9FD7
:10110600F00DEA9FE02DF10D089504D0F6DF0EF400
:10111600E9DF0895E894F7FF02C0E4DF6894B7FFBB
:1011260006C0A095B095119600F8039400FA0895AC
:101136001B2EBF2FF12D1A2EAE2FE12D08953A93B7
:101146002A931A930A9308953B812A81198108816B
:101156000895AC0FBD1F05900D928A95E1F708958D
:00000001FF
